:020000040000FA
:040000000DEF00F010
:04000800E1EF92F0A2
:06001800FF00CFEF94F0A1
:10FED00000524553455454494E47202020202020AD
:10FEE0002000437572736F72204F4E202020202017
:10FEF000202000437572736F72204F4646202020E9
:10FF0000202020004B65792042656570204F4E20EF
:10FF100020202020004E45572050415353574F5228
:10FF200044202020200054494D4552204348414E52
:10FF3000474520202020004B6579204265657020D0
:10FF40004F464620202020004E4F54204156414924
:10FF50004C41424C452020200054696D657220427E
:10FF6000656570204F4E2020200054696D65722019
:10FF700042656570204F464620200050415353573C
:10FF80004F5244204348414E474520002020202026
:10FF900020202020202020202020202000504153FD
:10FFA00053574F52443A2020202020202000202068
:10FFB00020204558504C4F444544202020200054D8
:10FFC000494D4552204348414E47450053544F50F8
:10FFD00045442020005354414E42592020004445BE
:10FFE000434C494E45440041434345505445440029
:0FFFF00041524D45442000444F4E452020000013
:020000040001F9
:10000000D5EC97F038EC96F03A503B18D8A4FCD7D2
:1000100048EC94F073EC90F060002CF124F0600058
:1000200030F125F0600090F038F0600094F039F085
:100030003050321803E131503318D8A455EF84F012
:1000400038500001856F866B2650851904E12750D2
:100050008619D8B4B8D03950856F866B265085196B
:1000600003E127508619D8A4AED036503710D8A453
:1000700008D02A502E1805E12B502F18D8B4F5ECD3
:1000800097F0230E3818D8B42CD02A0E3818D8B4CC
:1000900028D037BE06D0375024E1070E365CD8B0E2
:1000A00020D0530EA4EC98F03850A4EC98F0930EA6
:1000B0003624D96E000E3720DA6E6000E3F0DFFFE1
:1000C000364A372A000E4A6E020E496E090E362451
:1000D0004B6E000E37204C6E3AEC97F03850B3EC74
:1000E00097F0230E3818D8B40FD02A0E3818D8A499
:1000F0008BD739500001856F866B2650851984E1B6
:1001000027508619D8A480D72A0EA4EC98F01A0E8E
:100110000001856FF80EE82EFED7852FFCD700F082
:10012000930E4E6E000E4F6E740E506E000E516E9A
:10013000D2EC96F0600038F134F060003CF135F01C
:100140001A0E0001856FF80EE82EFED7852FFCD71A
:1001500000F022EC97F0195034181CE11A503518B1
:10016000D8A418D0A0EC93F0000E4A6E010E496E90
:10017000000E4C6E010E4B6E3AEC97F0F00E496E8D
:10018000FF0E4A6E31EC95F0B5EC96F097EC98F0D6
:1001900033EF86F02850341803E129503518D8A4DD
:1001A00033D744EC93F0030E0001866F8A0E856FFF
:1001B000550EE82EFED7852FFCD7862FFAD700D014
:1001C00038EC96F021D739500001856F866B2650A8
:1001D000851904E127508619D8B416D7230E38188C
:1001E000D8A45FD1230E3918D8A45BD1000E376E86
:1001F000000E366E600064F08FF0600068F090F0E2
:10020000000E4A6E010E496E000E4C6E010E4B6ED2
:100210003AEC97F07B0E496EFF0E4A6E31EC95F08A
:10022000930E4E6E000E4F6E7AEC96F0EEEC96F05A
:100230002ED173EC90F060002CF124F0600030F1CE
:1002400025F0600090F038F0600094F039F0230E53
:100250003818D8B426D02A0E3818D8B422D037BED1
:1002600006D037501EE1070E365CD8B01AD0930E78
:100270003624D96E000E3720DA6E6000E3F0DFFF1F
:10028000364A372A000E4A6E020E496E090E36248F
:100290004B6E000E37204C6E3AEC97F03850B3ECB2
:1002A00097F0230E3818D8B40FD02A0E3818D8A4D7
:1002B000EED039500001856F866B2650851903E119
:1002C00027508619D8A4E3D01A0E0001856FF80EC6
:1002D000E82EFED7852FFCD700F0930E4E6E000E51
:1002E0004F6E740E506E000E516ED2EC96F06000A0
:1002F00038F134F060003CF135F022EC97F0195001
:10030000341803E11A503518D8A4AAD04E0EA4EC24
:1003100098F0000E376E000E366EA0EC93F0000ED3
:100320004A6E010E496E000E4C6E010E4B6E3AEC99
:1003300097F0150E496EFF0E4A6E31EC95F0EEEC1B
:1003400096F085D073EC90F060002CF124F0600002
:1003500030F125F0600090F038F0600094F039F052
:10036000230E3818D8B42CD02A0E3818D8B428D078
:1003700037BE06D0375024E1070E365CD8B020D007
:100380004E0EA4EC98F03850A4EC98F0930E36245E
:10039000D96E000E3720DA6E6000E3F0DFFF364AD8
:1003A000372A000E4A6E020E496E090E36244B6E35
:1003B000000E37204C6E3AEC97F03850B3EC97F0C3
:1003C000230E3818D8B40FD02A0E3818D8A43FD02E
:1003D00039500001856F866B2650851938E127500A
:1003E0008619D8A434D04E0EA4EC98F02A0EA4ECB2
:1003F00098F0000E0001886F000E876F88BF03D051
:1004000088511AE115D0930E8725D96E000E8821E8
:10041000DA6E740E8725E16E000E8821E26E6F00A1
:100420007FFFE7FF874B882B88BFEDD7885104E11A
:10043000070E875DD8A0E7D76000A0F08FF06000BE
:10044000A4F090F022EC97F038EC96F020D0195000
:1004500000018F191CE11A509019D8A418D072D736
:100460002850341814E129503518D8A410D0600051
:10047000A0F08FF06000A4F090F044EC93F0930EA5
:100480004E6E000E4F6E7AEC96F038EC96F01950E6
:1004900000018F1905E11A509019D8A4B5D5C9D615
:1004A000B3D52A0E3818D8A414D12A0E3918D8A4D6
:1004B00010D1600064F091F0600068F092F0000EDE
:1004C0004A6E020E496E000E4C6E010E4B6E3AECF7
:1004D00097F0BF0E496EFF0E4A6E31EC95F0000E9C
:1004E00000018A6F000E896FA8EC95F0000E4A6E2D
:1004F000010E496E000E4C6E090E4B6E3AEC97F0F1
:10050000A9EC98F0D1D073EC90F060002CF124F0BD
:10051000600030F125F0600090F038F0600094F059
:1005200039F039500001856F866B2650851938E106
:1005300027508619D8A434D0230E3818D8A430D028
:1005400089518A11D8A403D0B1EC98F025D089053F
:100550008A11D8A408D0B1EC98F0B1EC98F0000161
:10056000894B8A2B1AD0030E89198A11D8A403D07B
:10057000B1EC98F011D0040E89198A11D8A405D0D5
:10058000B1EC98F0B1EC98F0EAD7060E89198A110F
:10059000D8A48AD0B1EC98F00001894B8A2B84D082
:1005A0003950856F866B2650851940E12750861992
:1005B000D8A43CD02A0E3818D8A438D089518A1132
:1005C000D8B472D089058A11D8A404D0B5EC98F0BB
:1005D000000128D0030E89198A11D8A409D0B5ECDE
:1005E00098F0B5EC98F000018907D8A08A071AD0D6
:1005F000040E89198A11D8A403D0B5EC98F0E8D775
:10060000060E89198A11D8A405D0B5EC98F0B5EC7E
:1006100098F0E9D7070E89198A11D8A445D0B5EC0E
:1006200098F0D6D78907D8A08A073ED03950856F71
:10063000866B265085192AE127508619D8A426D022
:10064000600E8925D96E000E8A21DA6E6000E3F013
:10065000DFFF3850B3EC97F00001894B8A2B020E74
:1006600089198A11D8B405D0050E89198A11D8A420
:1006700005D0B1EC98F00001894B8A2B080E89193E
:100680008A11D8A411D0B5EC98F0A2D72A0E391847
:10069000D8A40AD02A0E3818D8A406D06000A0F03A
:1006A00091F06000A4F092F019500001911904E15A
:1006B0001A509219D8B427D73FEC89F0BBEC91F0CF
:1006C00083EC95F0EEEC96F0000E376E000E366E71
:1006D0009BD4310E3818D8A445D0310E3918D8A47F
:1006E00041D000018D518E11D8A402D0010E01D04D
:1006F000000E8D6F8E6B2E502F10D8A402D0010EDD
:1007000001D0000E2E6E2F6A000E4A6E020E496E48
:10071000000E4C6E010E4B6E3AEC97F01B502E18EB
:100720000BE11C502F18D8A407D0040E496EFF0E01
:100730004A6E31EC95F006D0370E496EFF0E4A6EC8
:1007400031EC95F0100E0001866F390E856F0D0E9D
:10075000E82EFED7852FFCD7862FFAD700D038ECAD
:1007600096F052D4320E3818D8A454D0320E39181C
:10077000D8A450D02A502C181DE12B502D18D8A4E5
:1007800019D060006CF02CF0600070F02DF0A9EC36
:1007900098F0000E4A6E020E496E000E4C6E010E6D
:1007A0004B6E3AEC97F0E20E496EFE0E4A6E31EC5B
:1007B00095F01FD01B502C181CE11C502D18D8A4EC
:1007C00018D06000A8F02CF06000ACF02DF0ADEC7B
:1007D00098F0000E4A6E020E496E000E4C6E010E2D
:1007E0004B6E3AEC97F0F30E496EFE0E4A6E31EC0A
:1007F00095F0100E0001866F390E856F0D0EE82EF4
:10080000FED7852FFCD7862FFAD700D038EC96F08C
:1008100004EF80F0330E3818D8A404EF80F0330EC4
:100820003918D8A404EF80F01F502010D8A402D0AB
:10083000010E01D0000E1F6E206A1D501E10D8A49C
:1008400002D0010E01D0000E1D6E1E6A000E4A6E0F
:10085000020E496E000E4C6E010E4B6E3AEC97F094
:100860001B501F180BE11C502018D8A407D0590E9C
:10087000496EFF0E4A6E31EC95F006D06A0E496E55
:10088000FF0E4A6E31EC95F0100E0001866F390EA6
:10089000856F0D0EE82EFED7852FFCD7862FFAD751
:1008A00000D038EC96F004EF80F02150321803E1CC
:1008B00022503318D8A446D16000A8F02EF0600072
:1008C000ACF02FF038500001856F866B26508519EB
:1008D00004E127508619D8B48CD03950856F866BC7
:1008E0002650851903E127508619D8A482D03650A6
:1008F0003710D8A408D02A502E1805E12B502F18F5
:10090000D8B4F5EC97F0230E3818D8B42CD02A0EB2
:100910003818D8B428D037BE06D0375024E1070E97
:10092000365CD8B020D0550EA4EC98F03850A4EC2A
:1009300098F0930E3624D96E000E3720DA6E6000E0
:10094000E3F0DFFF364A372A000E4A6E020E496E88
:10095000090E36244B6E000E37204C6E3AEC97F0A1
:100960003850B3EC97F0230E3818D8B411D02A0EB3
:100970003818D8A404EF80F039500001856F866BD9
:100980002650851903E127508619D8A404EF80F07A
:10099000550EA4EC98F02A0EA4EC98F0930E4E6E2F
:1009A000000E4F6E740E506E000E516ED2EC96F02B
:1009B000600038F134F060003CF135F022EC97F043
:1009C0001950341812E11A503518D8A40ED0B9ECC9
:1009D00098F098EC96F06000C8F132F06000CCF12D
:1009E00033F059EC96F004EF80F0B5EC96F004EF9C
:1009F00080F039500001856F866B2650851905E11E
:100A000027508619D8B404EF80F0310E3818D8A4D6
:100A100025D0310E3918D8A421D0000E4A6E020E0E
:100A2000496E000E4C6E010E4B6E3AEC97F0480E7C
:100A3000496EFF0E4A6E31EC95F0100E0001866F84
:100A4000390E856F0D0EE82EFED7852FFCD7862F29
:100A5000FAD700D0B5EC96F004EF80F0320E3818DB
:100A6000D8A425D0320E3918D8A421D0000E4A6E51
:100A7000020E496E000E4C6E010E4B6E3AEC97F072
:100A8000480E496EFF0E4A6E31EC95F0100E0001D3
:100A9000866F390E856F0D0EE82EFED7852FFCD799
:100AA000862FFAD700D0B5EC96F004EF80F0330E25
:100AB0003818D8A404EF80F0330E3918D8A404EF06
:100AC00080F01F502010D8A402D0010E01D0000EDB
:100AD0001F6E206A1D501E10D8A402D0010E01D036
:100AE000000E1D6E1E6A000E4A6E020E496E000E4A
:100AF0004C6E010E4B6E3AEC97F01B501F180BE139
:100B00001C502018D8A407D0590E496EFF0E4A6E0B
:100B100031EC95F006D06A0E496EFF0E4A6E31EC4C
:100B200095F0100E0001866F390E856F0D0EE82EC0
:100B3000FED7852FFCD7862FFAD700D0B5EC96F0DC
:100B400004EF80F000017251321803E17351331841
:100B5000D8A417D33850856F866B2650851904E1C9
:100B600027508619D8B495D03950856F866B26509A
:100B7000851903E127508619D8A48BD03650371039
:100B8000D8A408D02A502E1805E12B502F18D8B41D
:100B9000F5EC97F0230E3818D8B426D02A0E381862
:100BA000D8B422D037BE06D037501EE1070E365CCF
:100BB000D8B01AD0930E3624D96E000E3720DA6ED4
:100BC0006000E3F0DFFF364A372A000E4A6E020E5D
:100BD000496E090E36244B6E000E37204C6E3AECEF
:100BE00097F03850B3EC97F0230E3818D8B404EFD0
:100BF00080F02A0E3818D8B404EF80F037BE07D042
:100C0000375003E1070E365CD8B004EF80F0030ED6
:100C10000001866F8A0E856F550EE82EFED7852F50
:100C2000FCD7862FFAD700D0930E4E6E000E4F6E73
:100C3000740E506E000E516ED2EC96F0600038F1DA
:100C400034F060003CF135F022EC97F01950341884
:100C500012E11A503518D8A40ED0A0EC93F0B5ECE0
:100C600096F097EC98F0600084F032F0600088F025
:100C700033F004EF80F02850341803E12950351880
:100C8000D8A404EF80F044EC93F059EC96F004EF14
:100C900080F039500001856F866B2650851905E17B
:100CA00027508619D8B404EF80F0230E3818D8A442
:100CB00005D0230E3918D8B404EF80F02A0E381866
:100CC000D8A40FD12A0E3918D8A40BD1600064F033
:100CD00091F0600068F092F0000E4A6E020E496ECC
:100CE000000E4C6E010E4B6E3AEC97F0260E496EDC
:100CF000FF0E4A6E31EC95F0000E00018C6F000E75
:100D00008B6FA8EC95F0000E4A6E010E496E000E36
:100D10004C6E090E4B6E3AEC97F0A9EC98F0D1D0DE
:100D200073EC90F060002CF124F0600030F125F0BD
:100D3000600090F038F0600094F039F03950000114
:100D4000856F866B2650851938E127508619D8A4FF
:100D500034D0230E3818D8A430D08B518C11D8A49D
:100D600003D0B1EC98F025D08B058C11D8A408D015
:100D7000B1EC98F0B1EC98F000018B4B8C2B1AD0B1
:100D8000030E8B198C11D8A403D0B1EC98F011D0BC
:100D9000040E8B198C11D8A405D0B1EC98F0B1ECED
:100DA00098F0EAD7060E8B198C11D8A48AD0B1EC32
:100DB00098F000018B4B8C2B84D03950856F866B5B
:100DC0002650851940E127508619D8A43CD02A0E18
:100DD0003818D8A438D08B518C11D8B472D08B0568
:100DE0008C11D8A404D0B5EC98F0000128D0030EE3
:100DF0008B198C11D8A409D0B5EC98F0B5EC98F00B
:100E000000018B07D8A08C071AD0040E8B198C1107
:100E1000D8A403D0B5EC98F0E8D7060E8B198C1146
:100E2000D8A405D0B5EC98F0B5EC98F0E9D7070E4A
:100E30008B198C11D8A445D0B5EC98F0D6D78B0778
:100E4000D8A08C073ED03950856F866B2650851907
:100E50002AE127508619D8A426D0600E8B25D96E9A
:100E6000000E8C21DA6E6000E3F0DFFF3850B3EC47
:100E700097F000018B4B8C2B020E8B198C11D8B480
:100E800005D0050E8B198C11D8A405D0B1EC98F0C3
:100E900000018B4B8C2B080E8B198C11D8A411D010
:100EA000B5EC98F0A2D72A0E3918D8A40AD02A0E89
:100EB0003818D8A406D06000A0F091F06000A4F02B
:100EC00092F019500001911904E11A509219D8B406
:100ED00027D73FEC89F083EC95F0EEEC96F004EF29
:100EE00080F0300E3818D8A469D0300E3918D8A444
:100EF00065D06000C0F032F06000C4F033F0000E46
:100F00004A6E020E496E000E4C6E010E4B6E3AECAC
:100F100097F0D10E496EFE0E4A6E31EC95F0000E40
:100F20004A6E020E496E000E4C6E0A0E4B6E3AEC83
:100F300097F0090E0001866F1E0E856FE40EE82EF5
:100F4000FED7852FFCD7862FFAD700F02E0EB3ECF4
:100F500097F0090E0001866F1E0E856FE40EE82ED5
:100F6000FED7852FFCD7862FFAD700F02E0EB3ECD4
:100F700097F0090E0001866F1E0E856FE40EE82EB5
:100F8000FED7852FFCD7862FFAD700F02E0EB3ECB4
:100F900097F0090E0001866F1E0E856FE40EE82E95
:100FA000FED7852FFCD7862FFAD700F0BBEC91F047
:100FB0003FEC89F038EC96F004EF80F0310E3818F1
:100FC000D8A43CD0310E3918D8A438D02E502F10C8
:100FD000D8A402D0010E01D0000E2E6E2F6A000E92
:100FE0004A6E020E496E000E4C6E010E4B6E3AECCC
:100FF00097F01B502E180BE11C502F18D8A407D0C7
:10100000040E496EFF0E4A6E31EC95F006D0370E95
:10101000496EFF0E4A6E31EC95F0100E0001866F9E
:10102000390E856F0D0EE82EFED7852FFCD7862F43
:10103000FAD700D059EC96F004EF80F0320E381851
:10104000D8A454D0320E3918D8A450D02A502C1815
:101050001DE12B502D18D8A419D060006CF02CF095
:10106000600070F02DF0A9EC98F0000E4A6E020EB0
:10107000496E000E4C6E010E4B6E3AEC97F0E20E8C
:10108000496EFE0E4A6E31EC95F01FD01B502C18A5
:101090001CE11C502D18D8A418D06000A8F02CF02A
:1010A0006000ACF02DF0ADEC98F0000E4A6E020E30
:1010B000496E000E4C6E010E4B6E3AEC97F0F30E3B
:1010C000496EFE0E4A6E31EC95F0100E0001866FEF
:1010D000390E856F0D0EE82EFED7852FFCD7862F93
:1010E000FAD700D059EC96F004EF80F0330E3818A0
:1010F000D8A404EF80F0330E3918D8A404EF80F0A0
:101100001D501E10D8A402D0010E01D0000E1D6E7D
:101110001E6A1F502010D8A402D0010E01D0000E6C
:101120001F6E206A000E4A6E020E496E000E4C6E53
:10113000010E4B6E3AEC97F01B501F180BE11C5040
:101140002018D8A407D0590E496EFF0E4A6E31EC14
:1011500095F006D06A0E496EFF0E4A6E31EC95F09E
:10116000100E0001866F390E856F0D0EE82EFED72A
:10117000852FFCD7862FFAD700D059EC96F004EFD4
:1011800080F000017051321803E171513318D8A476
:1011900004EF80F048EC94F03950D8B404EF80F0BC
:1011A000300E3818D8A404EF80F0300E3918D8A4C7
:1011B00004EF80F06000C0F032F06000C4F033F063
:1011C000000E4A6E020E496E000E4C6E010E4B6E02
:1011D0003AEC97F0D10E496EFE0E4A6E31EC95F066
:1011E000000E4A6E020E496E000E4C6E0A0E4B6ED9
:1011F0003AEC97F0090E0001866F1E0E856FE40E23
:10120000E82EFED7852FFCD7862FFAD700F02E0EBA
:10121000B3EC97F0090E0001866F1E0E856FE40E89
:10122000E82EFED7852FFCD7862FFAD700F02E0E9A
:10123000B3EC97F0090E0001866F1E0E856FE40E69
:10124000E82EFED7852FFCD7862FFAD700F02E0E7A
:10125000B3EC97F0090E0001866F1E0E856FE40E49
:10126000E82EFED7852FFCD7862FFAD700F0BBECEF
:1012700091F03FEC89F038EC96F004EF80F0000E2E
:101280004D6E000E4C6E4DBE08D04D5005E1080E5F
:101290004C5CD8B0120001D012004C504D10D8B4A4
:1012A00004D04C044D10D8A4E6D0600E4C24D96E66
:1012B000000E4D20DA6E300EDE18D8A40DD0D89076
:1012C0004C34D96E4D34DA6E0D0ED926000EDA226A
:1012D000000EDE6E000EDD6E600E4C24D96E000E28
:1012E0004D20DA6E310EDE18D8A40DD0D8904C34D3
:1012F000D96E4D34DA6E0D0ED926000EDA22010EAB
:10130000DE6E000EDD6E600E4C24D96E000E4D2098
:10131000DA6E320EDE18D8A40DD0D8904C34D96EC7
:101320004D34DA6E0D0ED926000EDA22020EDE6E74
:10133000000EDD6E600E4C24D96E000E4D20DA6E6C
:10134000330EDE18D8A40DD0D8904C34D96E4D345D
:10135000DA6E0D0ED926000EDA22030EDE6E000EB6
:10136000DD6E600E4C24D96E000E4D20DA6E340E08
:10137000DE18D8A40DD0D8904C34D96E4D34DA6E26
:101380000D0ED926000EDA22040EDE6E000EDD6E82
:10139000600E4C24D96E000E4D20DA6E350EDE182C
:1013A000D8A40DD0D8904C34D96E4D34DA6E0D0ED1
:1013B000D926000EDA22050EDE6E000EDD6E600EFE
:1013C0004C24D96E000E4D20DA6E360EDE18D8A4ED
:1013D0000DD0D8904C34D96E4D34DA6E0D0ED9261E
:1013E000000EDA22060EDE6E000EDD6E600E4C245C
:1013F000D96E000E4D20DA6E370EDE18D8A40DD04F
:10140000D8904C34D96E4D34DA6E0D0ED926000EBC
:10141000DA22070EDE6E000EDD6E600E4C24D96EF1
:10142000000E4D20DA6E380EDE18D8A40DD0D890FC
:101430004C34D96E4D34DA6E0D0ED926000EDA22F8
:10144000080EDE6E000EDD6E600E4C24D96E000EAE
:101450004D20DA6E390EDE18D8A40DD0D8904C3459
:10146000D96E4D34DA6E0D0ED926000EDA22090E31
:10147000DE6E000EDD6E030E4C184D10D8B405D094
:10148000040E4C184D10D8A472D1600E4C24D96EA5
:10149000000E4D20DA6E300EDE18D8A41BD0FE0EE2
:1014A000486EFF0E496E600030F14AF0600034F182
:1014B0004BF0D8904A364B3648504A2649504B227A
:1014C0000D0E4A24D96E000E4B20DA6E000EDE6E31
:1014D000000EDD6E600E4C24D96E000E4D20DA6ECB
:1014E000310EDE18D8A41BD0FE0E486EFF0E496EDA
:1014F000600030F14AF0600034F14BF0D8904A3689
:101500004B3648504A2649504B220D0E4A24D96E7C
:10151000000E4B20DA6E010EDE6E000EDD6E600EE8
:101520004C24D96E000E4D20DA6E320EDE18D8A48F
:101530001BD0FE0E486EFF0E496E600030F14AF07F
:10154000600034F14BF0D8904A364B3648504A266A
:1015500049504B220D0E4A24D96E000E4B20DA6EF4
:10156000020EDE6E000EDD6E600E4C24D96E000E93
:101570004D20DA6E330EDE18D8A41BD0FE0E486E56
:10158000FF0E496E600030F14AF0600034F14BF01C
:10159000D8904A364B3648504A2649504B220D0EB9
:1015A0004A24D96E000E4B20DA6E030EDE6E000E5A
:1015B000DD6E600E4C24D96E000E4D20DA6E340EB6
:1015C000DE18D8A41BD0FE0E486EFF0E496E6000D8
:1015D00030F14AF0600034F14BF0D8904A364B3687
:1015E00048504A2649504B220D0E4A24D96E000E0F
:1015F0004B20DA6E040EDE6E000EDD6E600E4C24A3
:10160000D96E000E4D20DA6E350EDE18D8A41BD030
:10161000FE0E486EFF0E496E600030F14AF0600029
:1016200034F14BF0D8904A364B3648504A26495050
:101630004B220D0E4A24D96E000E4B20DA6E050E99
:10164000DE6E000EDD6E600E4C24D96E000E4D2055
:10165000DA6E360EDE18D8A41BD0FE0E486EFF0ED2
:10166000496E600030F14AF0600034F14BF0D890E0
:101670004A364B3648504A2649504B220D0E4A24D2
:10168000D96E000E4B20DA6E060EDE6E000EDD6E99
:10169000600E4C24D96E000E4D20DA6E370EDE1827
:1016A000D8A41BD0FE0E486EFF0E496E600030F1CC
:1016B0004AF0600034F14BF0D8904A364B3648502F
:1016C0004A2649504B220D0E4A24D96E000E4B205B
:1016D000DA6E070EDE6E000EDD6E600E4C24D96EE3
:1016E000000E4D20DA6E380EDE18D8A41BD0FE0E88
:1016F000486EFF0E496E600030F14AF0600034F130
:101700004BF0D8904A364B3648504A2649504B2227
:101710000D0E4A24D96E000E4B20DA6E080EDE6ED6
:10172000000EDD6E600E4C24D96E000E4D20DA6E78
:10173000390EDE18D8A41BD0FE0E486EFF0E496E7F
:10174000600030F14AF0600034F14BF0D8904A3636
:101750004B3648504A2649504B220D0E4A24D96E2A
:10176000000E4B20DA6E090EDE6E000EDD6E060EE8
:101770004C184D10D8B405D0070E4C184D10D8A4F5
:1017800072D1600E4C24D96E000E4D20DA6E300EF0
:10179000DE18D8A41BD0FC0E486EFF0E496E600008
:1017A00030F14AF0600034F14BF0D8904A364B36B5
:1017B00048504A2649504B220D0E4A24D96E000E3D
:1017C0004B20DA6E000EDE6E000EDD6E600E4C24D5
:1017D000D96E000E4D20DA6E310EDE18D8A41BD063
:1017E000FC0E486EFF0E496E600030F14AF060005A
:1017F00034F14BF0D8904A364B3648504A2649507F
:101800004B220D0E4A24D96E000E4B20DA6E010ECB
:10181000DE6E000EDD6E600E4C24D96E000E4D2083
:10182000DA6E320EDE18D8A41BD0FC0E486EFF0E06
:10183000496E600030F14AF0600034F14BF0D8900E
:101840004A364B3648504A2649504B220D0E4A2400
:10185000D96E000E4B20DA6E020EDE6E000EDD6ECB
:10186000600E4C24D96E000E4D20DA6E330EDE1859
:10187000D8A41BD0FC0E486EFF0E496E600030F1FC
:101880004AF0600034F14BF0D8904A364B3648505D
:101890004A2649504B220D0E4A24D96E000E4B2089
:1018A000DA6E030EDE6E000EDD6E600E4C24D96E15
:1018B000000E4D20DA6E340EDE18D8A41BD0FC0EBC
:1018C000486EFF0E496E600030F14AF0600034F15E
:1018D0004BF0D8904A364B3648504A2649504B2256
:1018E0000D0E4A24D96E000E4B20DA6E040EDE6E09
:1018F000000EDD6E600E4C24D96E000E4D20DA6EA7
:10190000350EDE18D8A41BD0FC0E486EFF0E496EB3
:10191000600030F14AF0600034F14BF0D8904A3664
:101920004B3648504A2649504B220D0E4A24D96E58
:10193000000E4B20DA6E050EDE6E000EDD6E600EC0
:101940004C24D96E000E4D20DA6E360EDE18D8A467
:101950001BD0FC0E486EFF0E496E600030F14AF05D
:10196000600034F14BF0D8904A364B3648504A2646
:1019700049504B220D0E4A24D96E000E4B20DA6ED0
:10198000060EDE6E000EDD6E600E4C24D96E000E6B
:101990004D20DA6E370EDE18D8A41BD0FC0E486E30
:1019A000FF0E496E600030F14AF0600034F14BF0F8
:1019B000D8904A364B3648504A2649504B220D0E95
:1019C0004A24D96E000E4B20DA6E070EDE6E000E32
:1019D000DD6E600E4C24D96E000E4D20DA6E380E8E
:1019E000DE18D8A41BD0FC0E486EFF0E496E6000B6
:1019F00030F14AF0600034F14BF0D8904A364B3663
:101A000048504A2649504B220D0E4A24D96E000EEA
:101A10004B20DA6E080EDE6E000EDD6E600E4C247A
:101A2000D96E000E4D20DA6E390EDE18D8A41BD008
:101A3000FC0E486EFF0E496E600030F14AF0600007
:101A400034F14BF0D8904A364B3648504A2649502C
:101A50004B220D0E4A24D96E000E4B20DA6E090E71
:101A6000DE6E000EDD6E4C4A4D2A4DBE16D44D5032
:101A700001E10DD41200000E3F6E000E3E6E3FBE1F
:101A800008D03F5005E1060E3E5CD8B0120001D0F0
:101A900012003E503F10D8B404D03E043F10D8A4EA
:101AA000DAD0D8903E34D96E3F34DA6E010ED926A2
:101AB000000EDA22DE50DE10D8A408D0680E3E24D4
:101AC000D96E000E3F20DA6E300EDF6ED8903E34B5
:101AD000D96E3F34DA6E010ED926000EDA22DE040A
:101AE000DE10D8A408D0680E3E24D96E000E3F2028
:101AF000DA6E310EDF6ED8903E34D96E3F34DA6E36
:101B0000010ED926000EDA22020EDE18DE10D8A44D
:101B100008D0680E3E24D96E000E3F20DA6E320ED9
:101B2000DF6ED8903E34D96E3F34DA6E010ED9267E
:101B3000000EDA22030EDE18DE10D8A408D0680EDC
:101B40003E24D96E000E3F20DA6E330EDF6ED89041
:101B50003E34D96E3F34DA6E010ED926000EDA22F9
:101B6000040EDE18DE10D8A408D0680E3E24D96E0C
:101B7000000E3F20DA6E340EDF6ED8903E34D96E00
:101B80003F34DA6E010ED926000EDA22050EDE1879
:101B9000DE10D8A408D0680E3E24D96E000E3F2077
:101BA000DA6E350EDF6ED8903E34D96E3F34DA6E81
:101BB000010ED926000EDA22060EDE18DE10D8A499
:101BC00008D0680E3E24D96E000E3F20DA6E360E25
:101BD000DF6ED8903E34D96E3F34DA6E010ED926CE
:101BE000000EDA22070EDE18DE10D8A408D0680E28
:101BF0003E24D96E000E3F20DA6E370EDF6ED8908D
:101C00003E34D96E3F34DA6E010ED926000EDA2248
:101C1000080EDE18DE10D8A408D0680E3E24D96E57
:101C2000000E3F20DA6E380EDF6ED8903E34D96E4B
:101C30003F34DA6E010ED926000EDA22090EDE18C4
:101C4000DE10D8A408D0680E3E24D96E000E3F20C6
:101C5000DA6E390EDF6E020E3E183F10D8B405D092
:101C6000030E3E183F10D8A416D1D8903E34D96E3A
:101C70003F34DA6E010ED926000EDA22DE50DE1075
:101C8000D8A40ED0010E3E243C6E000E3F203D6EC7
:101C9000680E3C24D96E000E3D20DA6E300EDF6EE9
:101CA000D8903E34D96E3F34DA6E010ED926000E3C
:101CB000DA22DE04DE10D8A40ED0010E3E243C6EE3
:101CC000000E3F203D6E680E3C24D96E000E3D2074
:101CD000DA6E310EDF6ED8903E34D96E3F34DA6E54
:101CE000010ED926000EDA22020EDE18DE10D8A46C
:101CF0000ED0010E3E243C6E000E3F203D6E680E5D
:101D00003C24D96E000E3D20DA6E320EDF6ED89084
:101D10003E34D96E3F34DA6E010ED926000EDA2237
:101D2000030EDE18DE10D8A40ED0010E3E243C6E49
:101D3000000E3F203D6E680E3C24D96E000E3D2003
:101D4000DA6E330EDF6ED8903E34D96E3F34DA6EE1
:101D5000010ED926000EDA22040EDE18DE10D8A4F9
:101D60000ED0010E3E243C6E000E3F203D6E680EEC
:101D70003C24D96E000E3D20DA6E340EDF6ED89012
:101D80003E34D96E3F34DA6E010ED926000EDA22C7
:101D9000050EDE18DE10D8A40ED0010E3E243C6ED7
:101DA000000E3F203D6E680E3C24D96E000E3D2093
:101DB000DA6E350EDF6ED8903E34D96E3F34DA6E6F
:101DC000010ED926000EDA22060EDE18DE10D8A487
:101DD0000ED0010E3E243C6E000E3F203D6E680E7C
:101DE0003C24D96E000E3D20DA6E360EDF6ED890A0
:101DF0003E34D96E3F34DA6E010ED926000EDA2257
:101E0000070EDE18DE10D8A40ED0010E3E243C6E64
:101E1000000E3F203D6E680E3C24D96E000E3D2022
:101E2000DA6E370EDF6ED8903E34D96E3F34DA6EFC
:101E3000010ED926000EDA22080EDE18DE10D8A414
:101E40000ED0010E3E243C6E000E3F203D6E680E0B
:101E50003C24D96E000E3D20DA6E380EDF6ED8902D
:101E60003E34D96E3F34DA6E010ED926000EDA22E6
:101E7000090EDE18DE10D8A40ED0010E3E243C6EF2
:101E8000000E3F203D6E680E3C24D96E000E3D20B2
:101E9000DA6E390EDF6E040E3E183F10D8B405D04E
:101EA000050E3E183F10D8A416D1D8903E34D96EF6
:101EB0003F34DA6E010ED926000EDA22DE50DE1033
:101EC000D8A40ED0020E3E243C6E000E3F203D6E84
:101ED000680E3C24D96E000E3D20DA6E300EDF6EA7
:101EE000D8903E34D96E3F34DA6E010ED926000EFA
:101EF000DA22DE04DE10D8A40ED0020E3E243C6EA0
:101F0000000E3F203D6E680E3C24D96E000E3D2031
:101F1000DA6E310EDF6ED8903E34D96E3F34DA6E11
:101F2000010ED926000EDA22020EDE18DE10D8A429
:101F30000ED0020E3E243C6E000E3F203D6E680E19
:101F40003C24D96E000E3D20DA6E320EDF6ED89042
:101F50003E34D96E3F34DA6E010ED926000EDA22F5
:101F6000030EDE18DE10D8A40ED0020E3E243C6E06
:101F7000000E3F203D6E680E3C24D96E000E3D20C1
:101F8000DA6E330EDF6ED8903E34D96E3F34DA6E9F
:101F9000010ED926000EDA22040EDE18DE10D8A4B7
:101FA0000ED0020E3E243C6E000E3F203D6E680EA9
:101FB0003C24D96E000E3D20DA6E340EDF6ED890D0
:101FC0003E34D96E3F34DA6E010ED926000EDA2285
:101FD000050EDE18DE10D8A40ED0020E3E243C6E94
:101FE000000E3F203D6E680E3C24D96E000E3D2051
:101FF000DA6E350EDF6ED8903E34D96E3F34DA6E2D
:10200000010ED926000EDA22060EDE18DE10D8A444
:102010000ED0020E3E243C6E000E3F203D6E680E38
:102020003C24D96E000E3D20DA6E360EDF6ED8905D
:102030003E34D96E3F34DA6E010ED926000EDA2214
:10204000070EDE18DE10D8A40ED0020E3E243C6E21
:10205000000E3F203D6E680E3C24D96E000E3D20E0
:10206000DA6E370EDF6ED8903E34D96E3F34DA6EBA
:10207000010ED926000EDA22080EDE18DE10D8A4D2
:102080000ED0020E3E243C6E000E3F203D6E680EC8
:102090003C24D96E000E3D20DA6E380EDF6ED890EB
:1020A0003E34D96E3F34DA6E010ED926000EDA22A4
:1020B000090EDE18DE10D8A40ED0020E3E243C6EAF
:1020C000000E3F203D6E680E3C24D96E000E3D2070
:1020D000DA6E390EDF6E3E4A3F2A3FBEDAD43F50F9
:1020E00001E1D1D41200000E0001826F000E836F57
:1020F000000E846F000E7F6F000E7E6F000E7D6FEE
:10210000000E7C6F24D01AEC91F048500001846FCF
:1021100084514D6E4E6A26504D1804E127504E18DA
:10212000D8B415D0600010F283F0600064F07EF047
:10213000600068F07FF01B502E1807E11C502F182C
:10214000D8A403D075EC98F002D08FEC98F0000181
:1021500084514D6E4E6A26504D1857E127504E1847
:10216000D8A453D0D0D71A0E4D6EF80EE82EFED755
:102170004D2EFCD700D00A0E00017C27000E7D23D7
:102180001AEC91F048500001846F84514D6E4E6AF4
:1021900026504D1808E127504E18D8A404D0000E40
:1021A0007F6F000E7E6FD00E7C192FE1070E7D1918
:1021B000D8A42BD0600010F282F01B502E1815E12D
:1021C0001C502F18D8A411D06CEC98F0020E4E6E53
:1021D000040E4D6EBA0EE82EFED74D2EFCD74E2EB5
:1021E000FAD700D06CEC98F010D087EC98F0020E83
:1021F0004E6E040E4D6EBA0EE82EFED74D2EFCD755
:102200004E2EFAD700D087EC98F000017E511918B5
:1022100004E17F511A18D8B4A6D760000CF280F000
:10222000600008F281F0600000F24BF0600004F200
:102230004CF012003F01BB81CBA906D0BB91000E30
:10224000496E310E486E1200CBAB05D0BB91000E2B
:10225000496E320EF7D7CBAD05D0BB91000E496E5B
:10226000330EF0D7CBAF05D0BB91000E496E410EB7
:10227000E9D7BB91030E4A6E980EE82EFED74A2E80
:10228000FCD73F01BB83CBA906D0BB93000E496EA0
:10229000340E486E1200CBAB05D0BB93000E496ED6
:1022A000350EF7D7CBAD05D0BB93000E496E360E79
:1022B000F0D7CBAF05D0BB93000E496E420EE9D7E5
:1022C000BB93030E4A6E980EE82EFED74A2EFCD71B
:1022D0003F01BB85CBA906D0BB95000E496E370EDA
:1022E000486E1200CBAB05D0BB95000E496E380E80
:1022F000F7D7CBAD05D0BB95000E496E390EF0D7A0
:10230000CBAF05D0BB95000E496E430EE9D7BB9508
:10231000030E4A6E980EE82EFED74A2EFCD73F01D8
:10232000BB87CBA906D0BB97000E496E2A0E486E1C
:102330001200CBAB05D0BB97000E496E300EF7D71D
:10234000CBAD05D0BB97000E496E230EF0D7CBAFB7
:1023500005D0BB97000E496E440EE9D7BB97030E1C
:102360004A6E980EE82EFED74A2EFCD7000E496E14
:10237000000E486E1200000E4D6E000E4C6E4DBEEB
:1023800008D04D5005E1060E4C5CD8B0120001D0CB
:102390001200D8904C34D96E4D34DA6E0D0ED92619
:1023A000000EDA22D8904C34E16E4D34E26E010E0C
:1023B000E126000EE2226F007BFFE6FF6F0077FF51
:1023C000E5FF4DBE06D04D5013E1020E4C5CD8B077
:1023D0000FD0600E4C24D96E000E4D20DA6E680EC0
:1023E0004C24E16E000E4D20E26E6F007FFFE7FF90
:1023F0004DBE29D04D5004E1020E4C5CD8A023D034
:102400004DBE06D04D501FE1040E4C5CD8B01BD021
:10241000010E4C24486E000E4D20496E600E48247B
:10242000D96E000E4920DA6E010E4C244A6E000E61
:102430004D204B6E680E4A24E16E000E4B20E26E7A
:102440006F007FFFE7FF4DBE29D04D5004E1040E21
:102450004C5CD8A023D04DBE06D04D501FE1060ED7
:102460004C5CD8B01BD0020E4C24486E000E4D20A0
:10247000496E600E4824D96E000E4920DA6E020EB5
:102480004C244A6E000E4D204B6E680E4A24E16EBD
:10249000000E4B20E26E6F007FFFE7FF4C4A4D2A93
:1024A0004DBE77D74D5001E16ED712000B500C1086
:1024B000D8B404D00B06D8A00C067ED009500A1060
:1024C000D8B408D0000E0C6E090E0B6E0906D8A009
:1024D0000A0672D007500810D8B414D01B501F1829
:1024E00005E11C502018D8B47EEC98F00706D8A05F
:1024F0000806000E0C6E090E0B6E000E0A6E090E19
:10250000096E5AD01B501F1805E11C502018D8B472
:102510007EEC98F005500610D8B410D00506D8A06F
:102520000606000E0C6E090E0B6E000E0A6E090EEA
:10253000096E000E086E090E076E3ED0035004109F
:10254000D8B414D00306D8A00406000E0C6E090EF1
:102550000B6E000E0A6E090E096E000E086E090E53
:10256000076E000E066E050E056E26D00150021095
:10257000D8B418D00106D8A00206000E0C6E090EC1
:102580000B6E000E0A6E090E096E000E086E090E23
:10259000076E000E066E050E056E000E046E090E27
:1025A000036E0AD0BCEC98F06000C0F132F060001D
:1025B000C4F133F0FCEC93F03BEC8DF0CDEC95F0F6
:1025C00012006F00D8FF44F06F00DCFF45F06F0091
:1025D000E0FF46F06F00D4FF47F03901A4A109D015
:1025E0003F016E9FBA91B2913901A491720E3F01E1
:1025F000AB6F3901A3AF3BD0A39F3F01B89F56EC0F
:1026000092F0215032180BE122503318D8A407D091
:10261000630E3F01B76FBF0EB66FB88F28D00001B1
:102620007051321824E171513318D8A420D0000E13
:102630003E6E010E3D6E000E406E010E3F6E51EC7F
:1026400097F0F70E3D6EFF0E3E6E5AEC95F0000EC1
:102650003E6E020E3D6E000E406E010E3F6E51EC5E
:1026600097F0AE0E3D6EFF0E3E6E5AEC95F0600098
:102670001FF1F5FF60001BF1F8FF600017F1F7FF95
:10268000600013F1F6FF1100ADEC98F0000E4A6EF9
:10269000020E496E000E4C6E010E4B6E3AEC97F036
:1026A0008C0E496EFF0E4A6E31EC95F0000E526EA4
:1026B000000E516E52BE06D0525041E1060E515CE2
:1026C000D8B01200000E4A6E020E496E000E4C6E1B
:1026D000050E4B6E3AEC97F0DE0E496EFF0E4A6E19
:1026E00031EC95F057EC98F0020E506E860E4F6E5E
:1026F000990EE82EFED74F2EFCD7502EFAD700F0B9
:10270000000E4A6E020E496E000E4C6E050E4B6EA8
:102710003AEC97F0940E496EFF0E4A6E31EC95F04C
:10272000020E506E860E4F6E990EE82EFED74F2E7B
:10273000FCD7502EFAD700F0514A522ABBD71200CC
:10274000ADEC98F0000E4A6E020E496E000E4C6E13
:10275000010E4B6E3AEC97F08C0E496EFF0E4A6EEE
:1027600031EC95F0000E526E000E516E52BE06D046
:10277000525041E1060E515CD8B01200000E4A6E74
:10278000020E496E000E4C6E050E4B6E3AEC97F041
:10279000E70E496EFF0E4A6E31EC95F057EC98F05B
:1027A000020E506E860E4F6E990EE82EFED74F2EFB
:1027B000FCD7502EFAD700F0000E4A6E020E496E7A
:1027C000000E4C6E050E4B6E3AEC97F0940E496E6F
:1027D000FF0E4A6E31EC95F0020E506E860E4F6E73
:1027E000990EE82EFED74F2EFCD7502EFAD700F0C8
:1027F000514A522ABBD712003F016E8FB40EAB6F05
:10280000000E3E6E000E3D6E3EBE06D03E5012E102
:10281000200E3D5CD8B00ED03F01AB05AB6F540E1F
:102820003C6E1C0EE82EFED73C2EFCD700D03D4A55
:102830003E2AEAD7F40E3F01AB6F000E406E000E49
:102840003F6E40BE03D040501EE119D03F016E9F45
:10285000880E3C6E0F0EE82EFED73C2EFCD700F003
:102860003F016E8F4C0E3C6E520EE82EFED73C2E72
:10287000FCD73F4A402A40BEE9D7405004E10C0E45
:102880003F5CD8A0E3D73F016E9F720EAB6F120082
:102890001B5000018D1912E11C508E19D8A40ED0C6
:1028A0002150321804E122503318D8B407D0600008
:1028B0006CF02EF0600070F02FF006D06000A8F0F1
:1028C0002EF06000ACF02FF01B501D180BE11C50D7
:1028D0001E18D8A407D060006CF01FF0600070F0E4
:1028E00020F006D06000A8F01FF06000ACF020F0EF
:1028F0001B502C180EE11C502D18D8A40AD02150C2
:10290000321804E122503318D8B403D0A9EC98F05F
:102910001200ADEC98F01200000E3F01C56F000EE2
:10292000C46FBC9D680E496EE40EE82EFED7492E9A
:10293000FCD700D0300E22EC98F0340E496EF20E27
:10294000E82EFED7492EFCD7300E22EC98F0060E6A
:10295000496E300EE82EFED7492EFCD700D0300E3F
:1029600022EC98F0680E496EE40EE82EFED7492E50
:10297000FCD700D0380E22EC98F0080E22EC98F02C
:10298000010E22EC98F0060E22EC98F00E0E22ECCE
:1029900098F0020E22EC98F0E5EC97F01200280E69
:1029A000F66E300EF76E010EF86E00EE60F010EE6F
:1029B0001CF009006F00D7FFEEFFE550E150F9E190
:1029C000200EF66E2F0EF76E010EF86E00EE01F07F
:1029D00010EE23F009006F00D7FFEEFFE550E15045
:1029E000F9E100EE8DF00E0EEE6AE806FDE100EE74
:1029F00024F0180EEE6AE806FDE1080ED56E000E12
:102A0000D66E000ED76E000EF86E000100EF80F05B
:102A100004D0484A492A4A4A4B2A600023F1D9FF88
:102A2000600027F1DAFFDF504C6E60002BF1D9FF18
:102A300060002FF1DAFFDF5000084C244D6E4D503E
:102A4000D8A409D0600023F1D9FF600027F1DAFF94
:102A5000DF50D8A4DED74D50486E496A48BE4906BB
:102A60001200000E4E6E000E4D6E12D04D504924D5
:102A70004B6E4E504A204C6E60002FF1F6FF600006
:102A800033F1F7FF0800F550B3EC97F04D4A4E2AAA
:102A90004D5049244B6E4E504A204C6E60002FF131
:102AA000F6FF600033F1F7FF0800F5500009D8B4D5
:102AB0001200DCD7000E426E000E416E12D0415063
:102AC0003D243F6E42503E20406E6000FFF0F6FF16
:102AD000600003F1F7FF0800F550C4EC97F0414A9D
:102AE000422A41503D243F6E42503E20406E6000DD
:102AF000FFF0F6FF600003F1F7FF0800F550000952
:102B0000D8B41200DCD7000E4F6E000E4E6E4FBED2
:102B100006D04F501CE1080E4E5CD8B01200000EDB
:102B20004A6E010E496E090E4E244B6E000E4F2068
:102B30004C6E3AEC97F0680E4E24D96E000E4F2082
:102B4000DA6EDF50B3EC97F04E4A4F2AE0D712000E
:102B5000000E4F6E000E4E6E4FBE06D04F501CE161
:102B6000080E4E5CD8B01200000E4A6E010E496E7F
:102B7000090E4E244B6E000E4F204C6E3AEC97F02F
:102B8000600E4E24D96E000E4F20DA6EDF50B3EC8B
:102B900097F04E4A4F2AE0D71200000E436E000E07
:102BA000426E43BE06D043501CE1080E425CD8B0D2
:102BB0001200000E3E6E010E3D6E090E42243F6E65
:102BC000000E4320406E51EC97F0680E4224D96EFF
:102BD000000E4320DA6EDF50C4EC97F0424A432ADD
:102BE000E0D712003F01C291C2930D0E3A01016F6E
:102BF0003F015F51FC0B01095F6F390E6D6F100EC5
:102C00006C6F6E9FAE51F00B0109AE6F720EAB6F21
:102C1000AC518F0B2009AC6FAC8F300EB26F010E30
:102C2000B56F39019481A4911200600020F14CF03D
:102C3000600024F14DF002D04C4A4D2A600033F17F
:102C4000D9FF600037F1DAFFDF50D8A4F5D7600074
:102C500020F14AF0600024F14BF04A1E4B1E4A4A14
:102C60004B2A4C504A24486E4D504B20496E12005E
:102C7000000E376E000E366E930E4E6E000E4F6EC7
:102C80007AEC96F0E5EC97F0000E4A6E010E496E74
:102C9000000E4C6E010E4B6E3AEC97F0D50E496E5D
:102CA000FF0E4A6E31EC95F083EC95F0EEEC96F069
:102CB0001200000E376E000E366E930E4E6E000E32
:102CC0004F6E7AEC96F0E5EC97F0000E4A6E010E2E
:102CD000496E000E4C6E010E4B6E3AEC97F0CC0E26
:102CE000496EFF0E4A6E31EC95F083EC95F0EEECF8
:102CF00096F01200000E516E000E506E0AD0505029
:102D00004E24D96E51504F20DA6E000EDF6E504ABD
:102D1000512A600038F148F060003CF149F015ECB0
:102D200096F05050485C51504958D8A01200E7D74F
:102D300062EC98F0020E496E1E0E486EB40EE82E3C
:102D4000FED7482EFCD7492EFAD762EC98F0020E37
:102D5000496E1E0E486EB40EE82EFED7482EFCD7E4
:102D6000492EFAD762EC98F01200000E4A6E010E5E
:102D7000496E000E4C6E010E4B6E3AEC97F0F00E61
:102D8000496EFF0E4A6E31EC95F0000E376E000E64
:102D9000366E930E4E6E000E4F6E7AEC96F0EEECA1
:102DA00096F01200600038F148F060003CF149F004
:102DB000600040F14AF0600044F14BF008EC95F0FF
:102DC00048504910D8A405D0000E4F6E010E4E6E2B
:102DD0001200000E4F6E000E4E6E1200000E4A6E74
:102DE000020E496E000E4C6E010E4B6E3AEC97F0DF
:102DF0009D0E496EFF0E4A6E31EC95F0000E4A6E44
:102E0000020E496E000E4C6E0A0E4B6E3AEC97F0B5
:102E10001200000E3F01BE6F000EBD6F000EBA6FB4
:102E2000000EBB6F000EBC6F000E3A01706F000EFB
:102E3000716F000E416F000E426F000E726F39010C
:102E4000908F1200000E496E000E486E49BE06D0EB
:102E500049500FE1070E485CD8B01200930E482489
:102E6000D96E000E4920DA6E000EDF6E484A492AFC
:102E7000EDD7120049044A10D8A407D04B507F0F59
:102E80004D6E4D5022EC98F01200020E49184A1077
:102E9000D8A412004B50BF0F4D6E4D5022EC98F04D
:102EA00012003D043E10D8A407D03F507F0F416E62
:102EB000415030EC98F01200020E3D183E10D8A49C
:102EC00012003F50BF0F416E415030EC98F012009D
:102ED0003D01F29FF29DF28BF291F293F295F297FF
:102EE000F38F000EF66F030EF56F100E3A01E56FCB
:102EF000130E116F3F01C493C4811200000E3901FB
:102F0000C06F000EC16F000EC26F000EC36F000EC7
:102F1000C46F000EC56F000EC66F000EC76F1200A3
:102F2000000001000000000000000000000001009F
:102F3000000000000000000001000100010001008D
:032F40000100018C
:102F44003901938F838FA39F3F01B89FB889B951EB
:102F54001F0B6009B96FB989B951F00B0109B96F39
:102F64001200486E3F01BC8D000EBD6F4850BD136A
:102F7400BC8F1A0EE82EFED700D03F01BC9F000E76
:102F8400BD6F12003C6E3F01BC8D000EBD6F3C5006
:102F9400BD13BC8F1A0EE82EFED700D03F01BC9F94
:102FA400000EBD6F120068EC97F03EEC98F0F2EC66
:102FB40095F005EC98F0A2EC97F08CEC94F0AA0E46
:102FC400A4EC98F012003F01BC9D010EBD17BC8F0C
:102FD4000B0E486E620EE82EFED7482EFCD700D0AA
:102FE4003F01BC9F120062EC98F0020E496E1E0E67
:102FF400486EB40EE82EFED7482EFCD7492EFAD7D9
:1030040062EC98F012003F01C391C393C395C39738
:10301400C389C38BC38DC38F3A015099509B509D74
:10302400509F120030313A30303A303030313A303B
:10303400303A303003000200313131313131310066
:10304400486E3F01BC9D600023F1BDFFBC8F210E83
:10305400E82EFED700F03F01BC9F12003C6E3F01FA
:10306400BC9D6000F3F0BDFFBC8F210EE82EFED79F
:1030740000F03F01BC9F1200BFEC98F09EEC98F06A
:103084007EEC97F009EC97F04BEC98F0C0EC98F0DC
:103094001200600E3901D96F000EDB6F000EDD6F78
:1030A400030EDF6F000EDE6F1200F20E3F01AB6FF6
:1030B400540EB16F1F0EB06F6E8FBA81B2811200C1
:1030C4003F01AB69CE0EB16F570EB06F6E8FBA81F0
:1030D400B2811200CE0E3F01B16F570EB06F6E8FEA
:1030E400BA81B2811200AE0E3F01B16F570EB06FBC
:1030F4006E8FBA81B2811200AE0E3F01B16F570ECE
:10310400B06F6E8FBA81B2811200CE0E3F01B16FE3
:10311400570EB06FBA81B2811200AE0E3F01B16F8B
:10312400570EB06FBA81B2811200630E3F01B76FC0
:10313400BF0EB66FB88F12003F01D28FD28DD28FDF
:10314400D28B1200486E600023F1EAFD12000F0ECC
:1031540022EC98F012000C0E22EC98F01200140EDF
:1031640022EC98F01200100E22EC98F012003F01AD
:0E317400B89F12003F01B89F12001200120017
:020000040020DA
:10000000FF0FFF0FFF0FFF0FFF0FFF0FFF0FFF0F80
:020000040030CA
:0A000000ECFFF7FF9FFFFFFFFFFF7B
:00000001FF
